:020000040800F2
:1000000010040020D1000008690B0008D10A000884
:1000100000000000000000000000000000000000E0
:100020000000000000000000000000006D0B000850
:1000300000000000000000006B0B00086F0B0008C0
:10004000E3000008E3000008E3000008E300000804
:10005000E3000008E3000008610100086B010008EC
:10006000E3000008E3000008E3000008E3000008E4
:10007000E3000008E3000008E3000008E3000008D4
:10008000E3000008E3000008E3000008E3000008C4
:10009000E3000008E3000008E3000008E3000008B4
:1000A000E3000008E3000008E3000008E3000008A4
:1000B000E3000008E3000008E30000080348854669
:1000C00000F03CF800480047430C000810040020F2
:1000D0000448804704480047FEE7FEE7FEE7FEE7E6
:1000E000FEE7FEE7D10B0008BD00000830B50B4667
:1000F000014600202022012409E00D46D5409D4202
:1001000005D31D469540491B254695404019154687
:10011000521E002DF1DC30BDD2B201E00270401C55
:10012000491EFBD270470022F6E710B513460A4677
:1001300004461946FFF7F0FF204610BD064C012586
:10014000064E05E0E36807CC2B430C3C984710347F
:10015000B442F7D3FFF7B6FFCC0C0008EC0C000854
:1001600010B5082000F01CF810BD10B501204003A8
:1001700000F016F810BD000070B5044600F0E0F87D
:100180000546601C02D004480078241800F0D8F816
:10019000401BA042FAD370BD000000207047000051
:1001A00070B5084D0446E868204203D0EC60204654
:1001B00000F00AF82869204203D02C612046FFF79E
:1001C000EDFF70BD0018024070470000FCB5002331
:1001D00001259FE022462C469C4022406FD04E686D
:1001E000012E05D0022E03D0112E01D0122E16D1D1
:1001F00086680327B4465E00B646B7406646BE43EF
:10020000B446CF687646B74066463743876046684F
:10021000A6430C79E406E40F9C4034434460C6686E
:100220005F000324BC40A446A6438C68BC40344312
:10023000C4604C68022C01D0122C14D1DC08A4003C
:1002400024180194266A5C07B646E60E0F24B440D3
:1002500000967646A643B6460C69009EB4407646A4
:100260002643019C266204686646B4430E79B607AD
:10027000B60FBE40264306604C68E40049D59E0890
:10028000274CB6003419A446246E9E07F60E0F279D
:10029000B740BC4305273F07B84201D1002715E00E
:1002A000204FB84201D1012710E01F4FB84201D1C1
:1002B00002270BE01D4FB84202D1032706E028E0D9
:1002C0001B4FB84201D1042700E00527B740274360
:1002D00064462766124E803634684F689443FF03A5
:1002E00000D51443346074684F689443BF0300D54D
:1002F000144374600A4E34684F689443FF0200D57B
:100300001443346074684F689443BF0200D51443AB
:1003100074605B1C0A681446DA4000D05AE7FCBDE2
:10032000001802400004005000080050000C00506B
:1003300000100050002A01D081617047816270472F
:100340000148806870470000000000200248816872
:1003500002788918816070470000002010B50848B5
:1003600000240168821511430160204600F00AF85C
:10037000002801D0012401E000F028F8204610BD3B
:100380000020024070B50F4E002431780546002948
:1003900015D07D20C000FFF7A9FE01460A4800687D
:1003A000FFF7A4FE00F07CFB002808D1042D06D244
:1003B00000222946401E00F02FF8756000E001245D
:1003C000204670BD000000200C00002008B50B483E
:1003D0000168012211430160006810400090074845
:1003E0004038C26B01040A43C263C06B08400090EE
:1003F0000320400200F04AFB08BD0000401002400C
:10040000002805DBC106C90E0120884001490860AB
:100410007047000000E100E010B500F0E1FB10BD06
:1004200010B50F4C21680322520291430143216011
:10043000C11FFF39FA390ED10A4806210068484326
:100440000949FFF753FE401C02E0002805D0401E7A
:1004500061694905F9D4002010BD032010BD0000DA
:10046000007000400C00002040420F00F8B50F461D
:10047000060043D04D4D28684007400FB84213D2C4
:100480002868C008C00038432860FFF759FF0446B9
:1004900005E0FFF755FF011B4548814261D82868F8
:1004A0004007400FB842F4D13068424C81070DD567
:1004B000400704D5A068072109030843A060A0688D
:1004C0000F2109028843B1680843A0603078C00753
:1004D00032D0706801280AD002280BD000280FD033
:1004E0003449403103280ED0C969890704E02168E6
:1004F000890301E021688901002906DB0120F8BD9C
:1005000021684905F8E7096AEFE7A168C908C90049
:100510000143A160FFF714FF009006E0FFF710FF12
:100520000099411A224881421BD8A068382108400E
:100530007168C9008842F1D128684007400FB8426D
:1005400017D91A480168C908C90039430160FFF783
:10055000F7FE054607E0FFF7F3FE411B1448814212
:1005600001D90320F8BD114800684007400FB84288
:10057000F1D13078400706D5A068072109038843E8
:10058000F1680843A06000F01DF8A1683C228909C9
:100590001140094A515CC906C90EC84007490860A4
:1005A00007480068FFF7EEFEF8BD0000002002409B
:1005B00088130000001002408C0C00080C00002082
:1005C0000400002010B5204CA068204A8006400F8F
:1005D00016D0A0688006410F501001290FD0A168E5
:1005E0008906490F022912D0A0688006400F04280E
:1005F00023D0A0688006400F032821D0002010BD22
:10060000206801218004400F8140104612E0E1681B
:100610008B07E1689B0F4906490F491C032B00D04B
:100620001046FFF763FDE1684904490E4843E1685D
:10063000490F491CFFF75AFD10BD0120C00310BD32
:100640007D20000210BD0000001002400024F400D4
:10065000F8B504007ED020783827C007FE4D00286A
:1006600046D0A868E96838408907890F102802D069
:1006700008280BD001E0032908D00120626800049B
:1006800082420AD129680143296015E02868800365
:100690002ED560680028DDD02AE0052301211B0447
:1006A00089049A422A6802D10A432A60EAE782430F
:1006B0002A60286888432860606800280CD0FFF70B
:1006C0003FFE064604E0FFF73BFE801B642872D81D
:1006D00028688003F7D50BE0FFF732FE064604E0FA
:1006E000FFF72EFE801B6428F1D828688003F7D41A
:1006F0002078800768D5A868E96838408A0707210C
:10070000920FC902102802D0002813D001E0022A5B
:1007100010D0E0680028286845D088432169084344
:1007200028602868FF21013108432860FFF708FE90
:1007300006462CE02A68520502D5E268002A89D0D4
:100740006A687F231B029A4363691B021A436A602B
:10075000002800E08CE00ED1286888432169084316
:100760002860286801218004400F8140BB48FFF7C2
:10077000BDFCBB490860BB480068FFF703FE0028CA
:1007800076D121E0FFF7DCFD801B02289FD8286886
:100790004005F7D568687F2109028843616909022D
:1007A0000843686010E0FF21013188432860FFF7AB
:1007B000C7FD064605E0E2E0FFF7C2FD801B022808
:1007C00085D828684005F7D42078A74E00072ED595
:1007D000A8688006400F03280AD0A0690028306A64
:1007E00016D0012108433062FFF7AAFD07460BE04F
:1007F000306A80071BD5A0690028A0D017E0FFF75A
:100800009FFDC01B0228C1D8306A8007F7D50EE0D3
:10081000400840003062FFF793FD074604E0FFF711
:100820008FFDC01B0228B1D8306A8007F7D420782A
:1008300040076BD5A86800278006400F042818D011
:10084000E86BC00008D4E96B012000070143E963AD
:10085000E96B01400127009184480168C90519D45A
:100860000168821511430160FFF76AFD00900DE0F9
:1008700084E0F069800749D5A06800287ED045E073
:10088000FFF75EFD0099401A022878D87748006883
:10089000C005F5D5A168012910D004200529F1690A
:1008A00011D049084900F161F1698143F161A06803
:1008B000002816D0FFF744FD00900EE0F0690121FA
:1008C0000843F061F3E70143F161F7E7FFF738FD13
:1008D0000099411A6648814251D8F0698007F5D5E0
:1008E0000DE0FFF72DFD009006E0FFF729FD0099D0
:1008F000411A5F48814242D8F0698007F5D4002F41
:1009000004D0E96B012000078143E9632078800669
:1009100022D50120E1698005002929680ED0014314
:100920002960FFF70DFD064604E0FFF709FD801B77
:10093000022868D828680002F7D50DE081432960B5
:10094000FFF7FEFC064604E0FFF7FAFC801B0228D6
:1009500059D828680002F7D4206A00284DD0A96829
:100960008906490F022954D0012636060228286834
:1009700010D0B0432860E868800801E081E042E0E0
:100980008000E860E8683B490840E860FFF7D8FC71
:1009900004463AE0B0432860FFF7D2FC074604E083
:1009A000FFF7CEFCC01B02282DD828688001F7D4A1
:1009B000A16A606AE26A0843216B1202114308438C
:1009C000616B0843A16B0843E9682B4A1140084357
:1009D000E860286830432860E86801210907084377
:1009E000E860FFF7ADFC044604E0FFF7A9FC001B3C
:1009F000022808D828688001F7D544E0FFF7A0FC5A
:100A0000001B022801D90320F8BD28688001F5D415
:100A100039E00128F8D0E868626A8107890F9142BD
:100A20002FD17021A26A014091422AD17F21E26A2E
:100A3000090201401202914223D11F214904226B75
:100A4000014091421DD107214906626B014091424C
:100A500017D1400F400711E0001002400024F400BD
:100A60000C000020040000204010024000700040F4
:100A700088130000FFFFFEEE8C80C111A16B88423D
:100A800001D00120F8BD0020F8BD000003490A682C
:100A900003235B029A4302430A607047000001404F
:100AA000094910B5401E884201D9012010BD074CEC
:100AB00060610321081F00F093F80020A061072067
:100AC0002061002010BD0000FFFFFF0000E000E0FB
:100AD000FEE7000070B586B014216846FFF723FBDF
:100AE0001D48426B04210A434263426B0A4005924F
:100AF000416B012529434163406B05262840360799
:100B00000590002260213046FFF714FC1348009046
:100B1000134800240190694602941248FFF756FBDF
:100B20006020009002946946019503943046FFF7D7
:100B30004DFB002211460620FFF76EFC0620FFF752
:100B40005FFC002201210720FFF766FC0720FFF76A
:100B500057FC06B070BD00000010024008200000E5
:100B60000000111000080050FEE77047704710B5F4
:100B7000FFF7ECFB10BD10B594B03C216846FFF7C1
:100B8000D2FA002401200F94109411944002129480
:100B9000FFF746FC02200090C00103904020059022
:100BA000049408946846FFF753FD002801D072B6FC
:100BB000FEE707200F9010941194002112940FA8C3
:100BC000FFF754FC002801D072B6FEE714B010BD48
:100BD00001200249C00688607047000000ED00E077
:100BE0008307FF22DB0E9A408907090E99400028EF
:100BF00008DB830809489B001B18186890430843CA
:100C0000186070470007000F0838830804489B00ED
:100C10001B18D86990430843D861704700E400E08E
:100C200000ED00E002E008C8121F08C1002AFAD156
:100C300070477047002001E001C1121F002AFBD15C
:100C40007047FFF78BFBFFF796FFFFF743FF7D250C
:100C5000ED00052424072846FFF78EFA0122202103
:100C60002046FFF767FB002240212046FFF762FB8A
:100C70002846FFF781FA002220212046FFF75AFB81
:100C8000012240212046FFF755FBE4E70000000069
:100C90000000000000000000000000000000000054
:100CA0000000000000000000000000000100000043
:100CB0000200000003000000040000000600000025
:100CC000070000000800000009000000EC0C00080C
:100CD0000000002010000000240C0008FC0C00089C
:100CE0001000002000040000340C00080100000087
:0C0CF00004000000000000000024F400DC
:04000005080000BD32
:00000001FF
